:100000000C9472000C9493000C9493000C94930045
:100010000C9493000C9493000C9493000C94930014
:100020000C9493000C9493000C9493000C94930004
:100030000C9493000C9493000C9493000C949300F4
:100040000C9493000C9493000C9493000C949300E4
:100050000C9493000C9493000C9493000C949300D4
:100060000C9493000C9493000C9493000C949300C4
:100070000C9493000C9493000C9493000C949300B4
:100080000C9493000C9493000C9493000C949300A4
:100090000C9493000C9493000C9493000C94930094
:1000A0000C9493000C9493000C9493000C94930084
:1000B0000C9493000C9493000C9493000C94930074
:1000C0000C9493000C9493000C9493000C94930064
:1000D0000C9493000C9493000C9493000C94930054
:1000E0000C94930011241FBECFEFD1E2DEBFCDBF31
:1000F00000E00CBF12E0A0E0B2E0ECEFF7E000E0BF
:100100000BBF02C007900D92A833B107D9F712E0D8
:10011000A8E3B2E001C01D92A434B107E1F70E9448
:100120001B010C94FC030C940000439A089588B1C1
:1001300018B8089587B187B988B188B9089581B191
:100140008F6081B982B182B9EAE0F1E08081886193
:100150008083EBE0F1E08081886180830895E0E2B4
:10016000F1E08081896A8083E1E2F1E080818B6047
:100170008083E5E2F1E080818FEF8083E4E2F1E0CB
:1001800080818083E9E2F1E080818083EBE2F1E02D
:100190008081808308958093280160932A010895C7
:1001A00086E082B9089585E082B9089584E082B935
:1001B000089589E082B9089582B112B88FEF9FE760
:1001C000A6E181509040A040E1F700C000000895F2
:1001D0000E949F000E94AF000E949A000E9423028A
:1001E0000E94920208950E9495008FEF9FEFACE26B
:1001F00081509040A040E1F700C000000E949700AD
:10020000089581E065E040E052E00E94FB0282E058
:1002100064E045E052E00E94FB02089581E065E061
:100220004DE052E00E94FB0282E064E045E052E0D3
:100230000E94FB020895CF93DF930E94E8000E9482
:1002400001010E94D0008FEF6FEF0E94CB008FEF73
:100250009FEFA0EE81509040A040E1F700C0000069
:100260000E94CD020E94F3000E94DC000E94D00098
:1002700081E061E042E152E00E94FB028FEF60E02A
:100280000E94CB008FEF9FE7AFE181509040A040EC
:10029000E1F700C000000E94D9008FEF6FEF0E94CD
:1002A000CB0082E393E1AFE981509040A040E1F7B9
:1002B00000C000C00E94CD020E94D00080E06FEF1D
:1002C0000E94CB008FEF9FE7A6E181509040A040B5
:1002D000E1F700C000000E94DC000E94F3000E94D1
:1002E000F3000E94F3000E94D0008FEF6FEF0E9496
:1002F000CB008FEF9FE7A0E781509040A040E1F74F
:1003000000C000000E94DC000E94F3000E94D000A8
:100310000E94D300C9E1D2E081E062E0AE010E9418
:10032000FB0284E664E60E94CB008FEF9FEFACE215
:1003300081509040A040E1F700C000000E94CD0233
:100340000E94D0000E940E0184E664E60E94CB0069
:100350008FEF9FE7A1E5B1E081509040A040B04011
:10036000D9F700C000000E94CD020E94DC000E946C
:10037000D00081E062E043E252E00E94FB020E9472
:10038000D60080E06FEF0E94CB008FEF9FEFAEE3CF
:1003900081509040A040E1F700C000000E94DC00C6
:1003A0000E94CD020E9401010E94D0008FEF6FEFEA
:1003B0000E94CB008FEF9FEFA0EE81509040A040B5
:1003C000E1F700C000000E94CD020E94DC000E9404
:1003D000F3000E94D0000E94D30081E062E0AE01F1
:1003E0000E94FB0284E664E60E94CB008FEF9FE749
:1003F000A3E481509040A040E1F700C000000E94BB
:10040000CD020E94D0000E940E0184E664E60E94A4
:10041000CB008FEF9FE3A0E9B2E081509040A04075
:10042000B040D9F700C000000E94CD020E94DC005D
:1004300081E062E04DE252E00E94FB0280E090E049
:10044000DF91CF91089587B1876F87B988B18870A0
:1004500088B9089586E69EE00197F1F7000040987C
:10046000419880E388B9429AEFEFF7E43197F1F7CA
:1004700000C000004298E6E6FEE03197F1F7000088
:100480004098419888B9429AEFEFF7E43197F1F735
:1004900000C000004298E6E6FEE03197F1F7000068
:1004A0004098419888B9429A8FEF97E40197F1F705
:1004B00000C000004298E6E6FEE03197F1F7000048
:1004C0004098419880E288B9429A8FEF97E401976B
:1004D000F1F700C000004298089598B19F7098B954
:1004E00098B1282F207F922B98B940984198429A32
:1004F000EFEFF7E43197F1F700C00000429898B1B0
:100500009F7098B998B18295807F892B88B940985F
:100510004198429A8FEF97E40197F1F700C00000ED
:10052000429808950E942A0286E69EE00197F1F71C
:10053000000088E20E946D0281E00E946D0286E068
:100540000E946D028EE00E946D0280E80E946D02A2
:10055000089580E80E946D020895823079F083301A
:1005600018F48130C9F405C0833069F08430A1F4F7
:100570000FC0862F81580E946D020895862F8154E6
:100580000E946D020895862F8D560E946D02089577
:10059000862F8D520E946D02089581E00E946D02A7
:1005A0000895CF93C42F0E94AD0288B18F7088B98F
:1005B00088B19C2F907F892B88B9409A4198429AA4
:1005C0008FEF97E40197F1F700C00000429888B1DF
:1005D0008F7088B988B1C295C07FC82BC8B9409ABE
:1005E0004198429A8FEF97E40197F1F700C000001D
:1005F0004298CF9108950F931F93CF93DF93D82FF5
:10060000C62FFA014081442369F08F010F5F1F4F0D
:100610008D2F6C2F0E94D102CF5FF80141918F0185
:100620004423B1F7DF91CF911F910F910895EF927D
:10063000FF920F931F93CF93DF93D82FC62F7A018A
:1006400089010E94AD02FF205CF4F094E194F1086E
:10065000F3948D2F6C2F45E352E00E94FB02CF5F95
:10066000DD2311F0CC2319F40E94A90204C08D2FC0
:100670006C2F0E94AD020530110591F4C70160E1B5
:1006800077E20E94E903AB01405D5F4F509339026E
:10069000409338028D2F6C2F0E94D102CF5F03C090
:1006A00004301105E1F4C70168EE73E00E94E9032C
:1006B000CB0170933B0260933A026AE070E00E94C3
:1006C000D503AC01405D5F4F50934302409342021B
:1006D0008D2F6C2F0E94D102CF5F81E001C080E09E
:1006E0000330110511F08130D9F4C70164E670E0E0
:1006F0000E94E903CB0170933B0260933A026AE0E7
:1007000070E00E94D503AC01405D5F4F50933F0203
:1007100040933E028D2F6C2F0E94D102CF5F81E06B
:100720000230110511F08130D9F42AE030E0C70120
:10073000B9010E94E903CB0170933B0260933A0236
:10074000B9010E94D503AC01405D5F4F50933D025B
:1007500040933C028D2F6C2F0E94D102CF5F81E02D
:100760000130110511F0813089F4C7016AE070E0B1
:100770000E94E903AC01405D5F4F509341024093FA
:1007800040028D2F6C2F0E94D102CF5F06301105E1
:100790002CF08D2F6C2F45E40E94D102DF91CF9178
:1007A0001F910F91FF90EF900895AA1BBB1B51E181
:1007B00007C0AA1FBB1FA617B70710F0A61BB70BD1
:1007C000881F991F5A95A9F780959095BC01CD0176
:1007D000089597FB092E07260AD077FD04D0E5DFA0
:1007E00006D000201AF4709561957F4F0895F6F7B2
:0C07F000909581959F4F0895F894FFCFDD
:1007FC004661737400466F727761726400736C6F3C
:10080C0077007265766572730048617264206C655E
:10081C00667400736F6674206C656674006279652B
:08082C002E2E2E2E002D0000DF
:00000001FF
