:100000000C9472000C9493000C9493000C94930045
:100010000C9493000C9493000C9493000C94930014
:100020000C9493000C9493000C9493000C94930004
:100030000C9493000C9493000C9493000C949300F4
:100040000C9493000C9493000C9493000C949300E4
:100050000C9493000C9493000C9493000C949300D4
:100060000C9493000C9493000C9493000C949300C4
:100070000C9493000C9493000C9493000C949300B4
:100080000C9493000C9493000C9493000C949300A4
:100090000C9493000C9493000C9493000C94930094
:1000A0000C9493000C9493000C9493000C94930084
:1000B0000C9493000C9493000C9493000C94930074
:1000C0000C9493000C9493000C9493000C94930064
:1000D0000C9493000C9493000C9493000C94930054
:1000E0000C94930011241FBECFEFD1E2DEBFCDBF31
:1000F00000E00CBF12E0A0E0B2E0EEE8F2E000E0C9
:100100000BBF02C007900D92A030B107D9F712E0E3
:10011000A0E0B2E001C01D92A030B107E1F70E945B
:10012000BA000C9445010C9400008FE081B912B81C
:1001300088E180930A0180930B01089589EA8093F6
:1001400020018BE08093210110922401109229015B
:100150008FEF8093280110922B0180932A0108953C
:1001600086E082B9089512B80895809328016093BB
:100170002A0108950E9495000E949E000E94B000EE
:1001800080EA60EA0E94B5008FEF9FEFA0EE8150F9
:100190009040A040E1F700C000000E94B3000E9420
:1001A000B0008FEF60E00E94B5008FEF9FEFA0E5F9
:1001B00081509040A040E1F700C000000E94B000D4
:1001C00088EC68EC0E94B5008FEF9FEFA9E58150A5
:1001D0009040A040E1F700C000000E94B3000E94E0
:1001E000B00080E06FEF0E94B5008FEF9FE7A3E4BF
:1001F00081509040A040E1F700C000000E94B00094
:1002000088EC68EC0E94B5008FEF9FEFA9E5815064
:100210009040A040E1F700C000000E94B3000E949F
:10022000B0008FEF60E00E94B5008FEF9FE7A5E57B
:1002300081509040A040E1F700C000000E94B00053
:100240008FEF6FEF0E94B5008FEF9FE7ADE9815010
:100250009040A040E1F700C000000E94B3000E945F
:10026000B00080EF6CE80E94B5008FEF9FE3A9E13A
:10027000B1E081509040A040B040D9F700C00000EC
:0E0280000E94B30080E090E00895F894FFCF54
:00000001FF
