:100000000C9472000C9493000C9493000C94930045
:100010000C9493000C9493000C9493000C94930014
:100020000C9493000C9493000C9493000C94930004
:100030000C9493000C9493000C9493000C949300F4
:100040000C9493000C9493000C9493000C949300E4
:100050000C9493000C9493000C9493000C949300D4
:100060000C9493000C9493000C9493000C949300C4
:100070000C9493000C9493000C9493000C949300B4
:100080000C9493000C9493000C9493000C949300A4
:100090000C9493000C9493000C9493000C94930094
:1000A0000C9493000C9493000C9493000C94930084
:1000B0000C9493000C9493000C9493000C94930074
:1000C0000C9493000C9493000C9493000C94930064
:1000D0000C9493000C9493000C9493000C94930054
:1000E0000C94930011241FBECFEFD1E2DEBFCDBF31
:1000F00000E00CBF12E0A0E0B2E0E4ECF3E000E0CE
:100100000BBF02C007900D92A030B107D9F712E0E3
:10011000A0E0B2E001C01D92A030B107E1F70E945B
:10012000B6000C94E0010C9400008FE081B912B885
:1001300088E180930A0180930B01089586E082B9DB
:10014000089512B8089589E082B9089582B1856052
:1001500082B9089582B18A6082B90895129A089589
:10016000119A0895109A0895139A08950E9495007F
:100170000E949E008FEF9FE7A7E681509040A0402D
:10018000E1F700C000000E94A1008FEF9FE7A4E00C
:1001900081509040A040E1F700C000000E94AA00FA
:1001A0008FEF9FE7AFE181509040A040E1F700C0A2
:1001B00000000E94A1000E949E008FEF9FEFACE222
:1001C00081509040A040E1F700C000000E94A100D3
:1001D0008FEF9FE7A4E081509040A040E1F700C07E
:1001E00000000E94AA008FEF9FE7A6E18150904097
:1001F000A040E1F700C000000E94A1000E949E0004
:100200008FEF9FEFACE281509040A040E1F700C03B
:1002100000000E94A1008FEF9FE7A4E08150904072
:10022000A040E1F700C000000E94A6008FEF9FEF02
:10023000A3E281509040A040E1F700C000000E947E
:10024000A1000E949E008FEF9FE7A3E481509040A1
:10025000A040E1F700C000000E94A1008FEF9FE7DF
:10026000A4E081509040A040E1F700C000000E944F
:10027000AA008FEF9FEBA1E281509040A040E1F7F0
:1002800000C000000E94A1000E949E008FEF9FEF1F
:10029000A2E681509040A040E1F700C000000E941B
:1002A000A1008FEF9FE7A4E081509040A040E1F7CC
:1002B00000C000000E94AA008FEF9FE7AFE18150CD
:1002C0009040A040E1F700C000000E94A1000E9401
:1002D0009E008FEF9FE7A3E481509040A040E1F79C
:1002E00000C000000E94A1008FEF9FE7A4E08150B2
:1002F0009040A040E1F700C000000E94A6008FEFF0
:100300009FE7AFE181509040A040E1F700C00000BE
:100310000E94A1000E949E008FEF9FEFA5E38150F5
:100320009040A040E1F700C000000E94A1008FEFC4
:100330009FE7A4E081509040A040E1F700C000009A
:100340000E94AA008FEF9FEBAFE081509040A04049
:10035000E1F700C000000E94A1000E949E008FEF04
:100360009FEFACE281509040A040E1F700C0000058
:100370000E94A1008FEF9FE7A4E081509040A04031
:10038000E1F700C000000E94AA008FEF9FEFA3E2F8
:1003900081509040A040E1F700C000000E94A10001
:1003A0000E949E008FEF9FE7A3E481509040A04001
:1003B000E1F700C000000E94A10080E090E00895F5
:0403C000F894FFCFDF
:00000001FF
