:100000000C9472000C9493000C9493000C94930045
:100010000C9493000C9493000C9493000C94930014
:100020000C9493000C9493000C9493000C94930004
:100030000C9493000C9493000C9493000C949300F4
:100040000C9493000C9493000C9493000C949300E4
:100050000C9493000C9493000C9493000C949300D4
:100060000C9493000C9493000C9493000C949300C4
:100070000C9493000C9493000C9493000C949300B4
:100080000C9493000C9493000C9493000C949300A4
:100090000C9493000C9493000C9493000C94930094
:1000A0000C9493000C9493000C9493000C94930084
:1000B0000C9493000C9493000C9493000C94930074
:1000C0000C9493000C9493000C9493000C94930064
:1000D0000C9493000C9493000C9493000C94930054
:1000E0000C94930011241FBECFEFD1E2DEBFCDBF31
:1000F00000E00CBF12E0A0E0B2E0EAE2F5E000E0D0
:100100000BBF02C007900D92AA31B107D9F712E0D8
:10011000AAE1B2E001C01D92A632B107E1F70E9448
:1001200095000C9493020C9400000E94BA000E9467
:10013000290181E061E040E052E00E9492018FEFEE
:100140009FE7A6E181509040A040E1F700C0000089
:1001500082E066E041E152E00E9492018FEF9FEF62
:10016000A0EE81509040A040E1F700C0000080E088
:1001700090E0089587B1876F87B988B1887088B992
:10018000089586E69EE00197F1F7000040984198B7
:1001900080E388B9429AEFEFF7E43197F1F700C0B6
:1001A00000004298E6E6FEE03197F1F70000409843
:1001B000419888B9429AEFEFF7E43197F1F700C020
:1001C00000004298E6E6FEE03197F1F70000409823
:1001D000419888B9429A8FEF97E40197F1F700C0F0
:1001E00000004298E6E6FEE03197F1F70000409803
:1001F000419880E288B9429A8FEF97E40197F1F72E
:1002000000C000004298089598B19F7098B998B1C5
:10021000282F207F922B98B940984198429AEFEF6F
:10022000F7E43197F1F700C00000429898B19F7051
:1002300098B998B18295807F892B88B94098419868
:10024000429A8FEF97E40197F1F700C000004298BF
:1002500008950E94C10086E69EE00197F1F7000034
:1002600088E20E94040181E00E94040186E00E946D
:1002700004018EE00E94040180E80E9404010895B8
:1002800080E80E9404010895823079F0833018F4E8
:100290008130C9F405C0833069F08430A1F40FC007
:1002A000862F81580E9404010895862F81540E9450
:1002B00004010895862F8D560E9404010895862F0B
:1002C0008D520E940401089581E00E940401089566
:1002D000CF93C42F0E94440188B18F7088B988B130
:1002E0009C2F907F892B88B9409A4198429A8FEF32
:1002F00097E40197F1F700C00000429888B18F7031
:1003000088B988B1C295C07FC82BC8B9409A4198B6
:10031000429A8FEF97E40197F1F700C000004298EE
:10032000CF9108950F931F93CF93DF93D82FC62FAC
:10033000FA014081442369F08F010F5F1F4F8D2F19
:100340006C2F0E946801CF5FF80141918F01442317
:10035000B1F7DF91CF911F910F910895EF92FF9226
:100360000F931F93CF93DF93D82FC62F7A01890164
:100370000E944401FF205CF4F094E194F108F394AE
:100380008D2F6C2F48E152E00E949201CF5FDD2358
:1003900011F0CC2319F40E94400104C08D2F6C2F62
:1003A0000E9444010530110591F4C70160E177E234
:1003B0000E948002AB01405D5F4F50931B0240934F
:1003C0001A028D2F6C2F0E946801CF5F03C004308A
:1003D0001105E1F4C70168EE73E00E948002CB01D1
:1003E00070931D0260931C026AE070E00E946C0230
:1003F000AC01405D5F4F50932502409324028D2F46
:100400006C2F0E946801CF5F81E001C080E0033063
:10041000110511F08130D9F4C70164E670E00E9443
:100420008002CB0170931D0260931C026AE070E0B1
:100430000E946C02AC01405D5F4F509321024093DB
:1004400020028D2F6C2F0E946801CF5F81E0023067
:10045000110511F08130D9F42AE030E0C701B9016B
:100460000E948002CB0170931D0260931C02B901AF
:100470000E946C02AC01405D5F4F50931F0240939D
:100480001E028D2F6C2F0E946801CF5F81E001302A
:10049000110511F0813089F4C7016AE070E00E9413
:1004A0008002AC01405D5F4F5093230240932202D3
:1004B0008D2F6C2F0E946801CF5F063011052CF044
:1004C0008D2F6C2F45E40E946801DF91CF911F9121
:1004D0000F91FF90EF900895AA1BBB1B51E107C03D
:1004E000AA1FBB1FA617B70710F0A61BB70B881FC4
:1004F000991F5A95A9F780959095BC01CD01089553
:1005000097FB092E07260AD077FD04D0E5DF06D039
:1005100000201AF4709561957F4F0895F6F7909535
:0A05200081959F4F0895F894FFCFD6
:10052A004144414E4920554E495645525349545922
:0A053A00005445414D2033002D0010
:00000001FF
