:100000000C9472000C9493000C9493000C94930045
:100010000C9493000C9493000C9493000C94930014
:100020000C9493000C9493000C9493000C94930004
:100030000C9493000C9493000C9493000C949300F4
:100040000C9493000C9493000C9493000C949300E4
:100050000C9493000C9493000C9493000C949300D4
:100060000C9493000C9493000C9493000C949300C4
:100070000C9493000C9493000C9493000C949300B4
:100080000C9493000C9493000C9493000C949300A4
:100090000C9493000C9493000C9493000C94930094
:1000A0000C9493000C9493000C9493000C94930084
:1000B0000C9493000C9493000C9493000C94930074
:1000C0000C9493000C9493000C9493000C94930064
:1000D0000C9493000C9493000C9493000C94930054
:1000E0000C94930011241FBECFEFD1E2DEBFCDBF31
:1000F00000E00CBF12E0A0E0B2E0ECE5F7E000E0C9
:100100000BBF02C007900D92A032B107D9F712E0E1
:10011000A0E2B2E001C01D92AC32B107E1F70E944B
:10012000D0000C94AC030C9400008FE081B912B89D
:1001300088E180930A0180930B01089586E082B9DB
:10014000089589E082B9089512B8089588E082B9C7
:10015000089581E082B9089585E082B90895809379
:10016000280160932A01089589EA809320018BE099
:100170008093210110922401109229018FEF809326
:10018000280110922B0180932A01089588E087B9F5
:1001900018B8089588E088B9089587EF88B9089558
:1001A0000F931F93CF93DF930E9495000E94B4009A
:1001B0000E94C6000E94D3010E94420281E066E0D4
:1001C00040E052E00E94AB0282E065E047E052E08E
:1001D0000E94AB020E949E008FEF6FEF0E94AF0063
:1001E0008FEF9FEFA6E881509040A040E1F700C05C
:1001F00000000E94A40082E065E04FE052E00E940F
:10020000AB02C6E0D0E00E94CA008FEF9FE7A4E0F7
:1002100081509040A040E1F700C000000E94CD0056
:100220000E94A1008EE662ED0E94AF0082E393EF90
:10023000A6E181509040A040E1F700C000C02197A6
:1002400011F70E947D02C0E0D2E081E066E0AE01DD
:100250000E94AB0207E012E082E065E0A8010E9484
:10026000AB020E94A4008FEF9FEFA6E88150904060
:10027000A040E1F700C000000E94AC008FEF9FE3B8
:10028000AFE281509040A040E1F700C000000E9422
:10029000A4000E947D0281E066E0AE010E94AB02F4
:1002A00082E065E0A8010E94AB020E949E008FEFF1
:1002B0006FEF0E94AF008FEF9FEFA9E58150904054
:1002C000A040E1F700C000000E94A4000E94AC0022
:1002D0008FEF9FEBA8E181509040A040E1F700C074
:1002E00000000E94A4000E947D0281E066E0AE0151
:1002F0000E94AB0282E065E047E152E00E94AB025F
:100300000E949E0089E66AEF0E94AF008FEF9FEF88
:10031000A8E981509040A040E1F700C000000E9491
:10032000A4000E947D0281E066E0AE010E94AB0263
:1003300082E065E0A8010E94AB020E949E008FEF60
:100340006FEF0E94AF008FEF9FE7A0E781509040D2
:10035000A040E1F700C000000E94A4000E94AC0091
:100360008FEF9FE3ADE181509040A040E1F700C0E6
:1003700000000E94A4000E949E008FEF6FEF0E9479
:10038000AF008FEF9FEFADE781509040A040E1F7C5
:1003900000C000000E94A40080E090E0DF91CF91B7
:1003A0001F910F91089587B1876F87B988B18870C1
:1003B00088B9089586E69EE00197F1F7000040981D
:1003C000419880E388B9429AEFEFF7E43197F1F76B
:1003D00000C000004298E6E6FEE03197F1F7000029
:1003E0004098419888B9429AEFEFF7E43197F1F7D6
:1003F00000C000004298E6E6FEE03197F1F7000009
:100400004098419888B9429A8FEF97E40197F1F7A5
:1004100000C000004298E6E6FEE03197F1F70000E8
:100420004098419880E288B9429A8FEF97E401970B
:10043000F1F700C000004298089598B19F7098B9F4
:1004400098B1282F207F922B98B940984198429AD2
:10045000EFEFF7E43197F1F700C00000429898B150
:100460009F7098B998B18295807F892B88B9409800
:100470004198429A8FEF97E40197F1F700C000008E
:10048000429808950E94DA0186E69EE00197F1F70E
:10049000000088E20E941D0281E00E941D0286E0A9
:1004A0000E941D028EE00E941D0280E80E941D0233
:1004B000089580E80E941D020895823079F083300B
:1004C00018F48130C9F405C0833069F08430A1F498
:1004D0000FC0862F81580E941D020895862F8154D7
:1004E0000E941D020895862F8D560E941D020895B8
:1004F000862F8D520E941D02089581E00E941D02E8
:100500000895CF93C42F0E945D0288B18F7088B97F
:1005100088B19C2F907F892B88B9409A4198429A44
:100520008FEF97E40197F1F700C00000429888B17F
:100530008F7088B988B1C295C07FC82BC8B9409A5E
:100540004198429A8FEF97E40197F1F700C00000BD
:100550004298CF9108950F931F93CF93DF93D82F95
:10056000C62FFA014081442369F08F010F5F1F4FAE
:100570008D2F6C2F0E948102CF5FF80141918F0176
:100580004423B1F7DF91CF911F910F910895EF921E
:10059000FF920F931F93CF93DF93D82FC62F7A012B
:1005A00089010E945D02FF205CF4F094E194F1085F
:1005B000F3948D2F6C2F4DE152E00E94AB02CF5F80
:1005C000DD2311F0CC2319F40E94590204C08D2FB1
:1005D0006C2F0E945D020530110591F4C70160E1A6
:1005E00077E20E949903AB01405D5F4F5093210277
:1005F000409320028D2F6C2F0E948102CF5F03C099
:1006000004301105E1F4C70168EE73E00E9499031C
:10061000CB0170932302609322026AE070E00E9493
:100620008503AC01405D5F4F50932B0240932A023B
:100630008D2F6C2F0E948102CF5F81E001C080E08E
:100640000330110511F08130D9F4C70164E670E080
:100650000E949903CB0170932302609322026AE007
:1006600070E00E948503AC01405D5F4F509327020C
:10067000409326028D2F6C2F0E948102CF5F81E074
:100680000230110511F08130D9F42AE030E0C701C1
:10069000B9010E949903CB01709323026093220257
:1006A000B9010E948503AC01405D5F4F5093250264
:1006B000409324028D2F6C2F0E948102CF5F81E036
:1006C0000130110511F0813089F4C7016AE070E052
:1006D0000E949903AC01405D5F4F50932902409303
:1006E00028028D2F6C2F0E948102CF5F06301105EA
:1006F0002CF08D2F6C2F45E40E948102DF91CF9169
:100700001F910F91FF90EF900895AA1BBB1B51E121
:1007100007C0AA1FBB1FA617B70710F0A61BB70B71
:10072000881F991F5A95A9F780959095BC01CD0116
:10073000089597FB092E07260AD077FD04D0E5DF40
:1007400006D000201AF4709561957F4F0895F6F752
:0C075000909581959F4F0895F894FFCF7D
:10075C005445414D203300464F52574152440052AC
:10076C00455645525345004355525645002D000001
:00000001FF
